{
  "_format": "hh-sol-artifact-1",
  "contractName": "MyEpicNFT",
  "sourceName": "contracts/MyEpicNFT.sol",
  "abi": [
    {
      "inputs": [],
      "stateMutability": "nonpayable",
      "type": "constructor"
    },
    {
      "anonymous": false,
      "inputs": [
        {
          "indexed": true,
          "internalType": "address",
          "name": "owner",
          "type": "address"
        },
        {
          "indexed": true,
          "internalType": "address",
          "name": "approved",
          "type": "address"
        },
        {
          "indexed": true,
          "internalType": "uint256",
          "name": "tokenId",
          "type": "uint256"
        }
      ],
      "name": "Approval",
      "type": "event"
    },
    {
      "anonymous": false,
      "inputs": [
        {
          "indexed": true,
          "internalType": "address",
          "name": "owner",
          "type": "address"
        },
        {
          "indexed": true,
          "internalType": "address",
          "name": "operator",
          "type": "address"
        },
        {
          "indexed": false,
          "internalType": "bool",
          "name": "approved",
          "type": "bool"
        }
      ],
      "name": "ApprovalForAll",
      "type": "event"
    },
    {
      "anonymous": false,
      "inputs": [
        {
          "indexed": false,
          "internalType": "address",
          "name": "sender",
          "type": "address"
        },
        {
          "indexed": false,
          "internalType": "uint256",
          "name": "tokenId",
          "type": "uint256"
        }
      ],
      "name": "NewEpicNFTMinted",
      "type": "event"
    },
    {
      "anonymous": false,
      "inputs": [
        {
          "indexed": true,
          "internalType": "address",
          "name": "from",
          "type": "address"
        },
        {
          "indexed": true,
          "internalType": "address",
          "name": "to",
          "type": "address"
        },
        {
          "indexed": true,
          "internalType": "uint256",
          "name": "tokenId",
          "type": "uint256"
        }
      ],
      "name": "Transfer",
      "type": "event"
    },
    {
      "inputs": [
        {
          "internalType": "address",
          "name": "to",
          "type": "address"
        },
        {
          "internalType": "uint256",
          "name": "tokenId",
          "type": "uint256"
        }
      ],
      "name": "approve",
      "outputs": [],
      "stateMutability": "nonpayable",
      "type": "function"
    },
    {
      "inputs": [
        {
          "internalType": "address",
          "name": "owner",
          "type": "address"
        }
      ],
      "name": "balanceOf",
      "outputs": [
        {
          "internalType": "uint256",
          "name": "",
          "type": "uint256"
        }
      ],
      "stateMutability": "view",
      "type": "function"
    },
    {
      "inputs": [
        {
          "internalType": "uint256",
          "name": "tokenId",
          "type": "uint256"
        }
      ],
      "name": "getApproved",
      "outputs": [
        {
          "internalType": "address",
          "name": "",
          "type": "address"
        }
      ],
      "stateMutability": "view",
      "type": "function"
    },
    {
      "inputs": [
        {
          "internalType": "address",
          "name": "owner",
          "type": "address"
        },
        {
          "internalType": "address",
          "name": "operator",
          "type": "address"
        }
      ],
      "name": "isApprovedForAll",
      "outputs": [
        {
          "internalType": "bool",
          "name": "",
          "type": "bool"
        }
      ],
      "stateMutability": "view",
      "type": "function"
    },
    {
      "inputs": [],
      "name": "makeAnEpicNFT",
      "outputs": [],
      "stateMutability": "nonpayable",
      "type": "function"
    },
    {
      "inputs": [],
      "name": "name",
      "outputs": [
        {
          "internalType": "string",
          "name": "",
          "type": "string"
        }
      ],
      "stateMutability": "view",
      "type": "function"
    },
    {
      "inputs": [],
      "name": "numberOfNFT",
      "outputs": [
        {
          "internalType": "uint256",
          "name": "",
          "type": "uint256"
        }
      ],
      "stateMutability": "view",
      "type": "function"
    },
    {
      "inputs": [
        {
          "internalType": "uint256",
          "name": "tokenId",
          "type": "uint256"
        }
      ],
      "name": "ownerOf",
      "outputs": [
        {
          "internalType": "address",
          "name": "",
          "type": "address"
        }
      ],
      "stateMutability": "view",
      "type": "function"
    },
    {
      "inputs": [
        {
          "internalType": "uint256",
          "name": "tokenId",
          "type": "uint256"
        }
      ],
      "name": "pickRandomColor",
      "outputs": [
        {
          "internalType": "string",
          "name": "",
          "type": "string"
        }
      ],
      "stateMutability": "view",
      "type": "function"
    },
    {
      "inputs": [
        {
          "internalType": "uint256",
          "name": "tokenId",
          "type": "uint256"
        }
      ],
      "name": "pickRandomFirstWord",
      "outputs": [
        {
          "internalType": "string",
          "name": "",
          "type": "string"
        }
      ],
      "stateMutability": "view",
      "type": "function"
    },
    {
      "inputs": [
        {
          "internalType": "uint256",
          "name": "tokenId",
          "type": "uint256"
        }
      ],
      "name": "pickRandomSecondWord",
      "outputs": [
        {
          "internalType": "string",
          "name": "",
          "type": "string"
        }
      ],
      "stateMutability": "view",
      "type": "function"
    },
    {
      "inputs": [
        {
          "internalType": "uint256",
          "name": "tokenId",
          "type": "uint256"
        }
      ],
      "name": "pickRandomThirdWord",
      "outputs": [
        {
          "internalType": "string",
          "name": "",
          "type": "string"
        }
      ],
      "stateMutability": "view",
      "type": "function"
    },
    {
      "inputs": [
        {
          "internalType": "address",
          "name": "from",
          "type": "address"
        },
        {
          "internalType": "address",
          "name": "to",
          "type": "address"
        },
        {
          "internalType": "uint256",
          "name": "tokenId",
          "type": "uint256"
        }
      ],
      "name": "safeTransferFrom",
      "outputs": [],
      "stateMutability": "nonpayable",
      "type": "function"
    },
    {
      "inputs": [
        {
          "internalType": "address",
          "name": "from",
          "type": "address"
        },
        {
          "internalType": "address",
          "name": "to",
          "type": "address"
        },
        {
          "internalType": "uint256",
          "name": "tokenId",
          "type": "uint256"
        },
        {
          "internalType": "bytes",
          "name": "_data",
          "type": "bytes"
        }
      ],
      "name": "safeTransferFrom",
      "outputs": [],
      "stateMutability": "nonpayable",
      "type": "function"
    },
    {
      "inputs": [
        {
          "internalType": "address",
          "name": "operator",
          "type": "address"
        },
        {
          "internalType": "bool",
          "name": "approved",
          "type": "bool"
        }
      ],
      "name": "setApprovalForAll",
      "outputs": [],
      "stateMutability": "nonpayable",
      "type": "function"
    },
    {
      "inputs": [
        {
          "internalType": "bytes4",
          "name": "interfaceId",
          "type": "bytes4"
        }
      ],
      "name": "supportsInterface",
      "outputs": [
        {
          "internalType": "bool",
          "name": "",
          "type": "bool"
        }
      ],
      "stateMutability": "view",
      "type": "function"
    },
    {
      "inputs": [],
      "name": "symbol",
      "outputs": [
        {
          "internalType": "string",
          "name": "",
          "type": "string"
        }
      ],
      "stateMutability": "view",
      "type": "function"
    },
    {
      "inputs": [
        {
          "internalType": "uint256",
          "name": "tokenId",
          "type": "uint256"
        }
      ],
      "name": "tokenURI",
      "outputs": [
        {
          "internalType": "string",
          "name": "",
          "type": "string"
        }
      ],
      "stateMutability": "view",
      "type": "function"
    },
    {
      "inputs": [
        {
          "internalType": "address",
          "name": "from",
          "type": "address"
        },
        {
          "internalType": "address",
          "name": "to",
          "type": "address"
        },
        {
          "internalType": "uint256",
          "name": "tokenId",
          "type": "uint256"
        }
      ],
      "name": "transferFrom",
      "outputs": [],
      "stateMutability": "nonpayable",
      "type": "function"
    }
  ],
  "bytecode": "0x608060405260405180610100016040528060d381526020016200491660d391396008908051906020019062000036929190620007f1565b50604051806080016040528060568152602001620049e9605691396009908051906020019062000068929190620007f1565b506040518060c001604052806040518060400160405280600681526020017f507265747479000000000000000000000000000000000000000000000000000081525081526020016040518060400160405280600581526020017f477265617400000000000000000000000000000000000000000000000000000081525081526020016040518060400160405280600581526020017f4c6172676500000000000000000000000000000000000000000000000000000081525081526020016040518060400160405280600981526020017f496d706f7274616e74000000000000000000000000000000000000000000000081525081526020016040518060400160405280600781526020017f506f70756c61720000000000000000000000000000000000000000000000000081525081526020016040518060400160405280600581526020017f4261736963000000000000000000000000000000000000000000000000000000815250815250600a906006620001e692919062000882565b506040518060c001604052806040518060400160405280600481526020017f466972650000000000000000000000000000000000000000000000000000000081525081526020016040518060400160405280600881526020017f496e74657265737400000000000000000000000000000000000000000000000081525081526020016040518060400160405280600681526020017f44657369676e000000000000000000000000000000000000000000000000000081525081526020016040518060400160405280600381526020017f417274000000000000000000000000000000000000000000000000000000000081525081526020016040518060400160405280600581526020017f4d7573696300000000000000000000000000000000000000000000000000000081525081526020016040518060400160405280600781526020017f536369656e636500000000000000000000000000000000000000000000000000815250815250600b9060066200036492919062000882565b506040518060a001604052806040518060400160405280600681526020017f427574526564000000000000000000000000000000000000000000000000000081525081526020016040518060400160405280600781526020017f427574426c75650000000000000000000000000000000000000000000000000081525081526020016040518060400160405280600881526020017f427574477265656e00000000000000000000000000000000000000000000000081525081526020016040518060400160405280600981526020017f42757459656c6c6f77000000000000000000000000000000000000000000000081525081526020016040518060400160405280600981526020017f427574507572706c650000000000000000000000000000000000000000000000815250815250600c906005620004a7929190620008e9565b506040518060c001604052806040518060400160405280600381526020017f726564000000000000000000000000000000000000000000000000000000000081525081526020016040518060400160405280600781526020017f233038433241380000000000000000000000000000000000000000000000000081525081526020016040518060400160405280600581526020017f626c61636b00000000000000000000000000000000000000000000000000000081525081526020016040518060400160405280600681526020017f79656c6c6f77000000000000000000000000000000000000000000000000000081525081526020016040518060400160405280600481526020017f626c75650000000000000000000000000000000000000000000000000000000081525081526020016040518060400160405280600581526020017f677265656e000000000000000000000000000000000000000000000000000000815250815250600d9060066200062592919062000882565b503480156200063357600080fd5b506040518060400160405280600981526020017f5371756172654e465400000000000000000000000000000000000000000000008152506040518060400160405280600681526020017f53515541524500000000000000000000000000000000000000000000000000008152508160009080519060200190620006b8929190620007f1565b508060019080519060200190620006d1929190620007f1565b5050506200071f6040518060400160405280601e81526020017f54686973206973206d79204e465420636f6e74726163742e20576f61682100008152506200072560201b620012f81760201c565b62000b0a565b620007c5816040516024016200073c919062000a1e565b6040516020818303038152906040527f41304fac000000000000000000000000000000000000000000000000000000007bffffffffffffffffffffffffffffffffffffffffffffffffffffffff19166020820180517bffffffffffffffffffffffffffffffffffffffffffffffffffffffff8381831617835250505050620007c860201b60201c565b50565b60008151905060006a636f6e736f6c652e6c6f679050602083016000808483855afa5050505050565b828054620007ff9062000a94565b90600052602060002090601f0160209004810192826200082357600085556200086f565b82601f106200083e57805160ff19168380011785556200086f565b828001600101855582156200086f579182015b828111156200086e57825182559160200191906001019062000851565b5b5090506200087e919062000950565b5090565b828054828255906000526020600020908101928215620008d6579160200282015b82811115620008d5578251829080519060200190620008c4929190620007f1565b5091602001919060010190620008a3565b5b509050620008e591906200096f565b5090565b8280548282559060005260206000209081019282156200093d579160200282015b828111156200093c5782518290805190602001906200092b929190620007f1565b50916020019190600101906200090a565b5b5090506200094c91906200096f565b5090565b5b808211156200096b57600081600090555060010162000951565b5090565b5b8082111562000993576000818162000989919062000997565b5060010162000970565b5090565b508054620009a59062000a94565b6000825580601f10620009b95750620009da565b601f016020900490600052602060002090810190620009d9919062000950565b5b50565b6000620009ea8262000a42565b620009f6818562000a4d565b935062000a0881856020860162000a5e565b62000a138162000af9565b840191505092915050565b6000602082019050818103600083015262000a3a8184620009dd565b905092915050565b600081519050919050565b600082825260208201905092915050565b60005b8381101562000a7e57808201518184015260208101905062000a61565b8381111562000a8e576000848401525b50505050565b6000600282049050600182168062000aad57607f821691505b6020821081141562000ac45762000ac362000aca565b5b50919050565b7f4e487b7100000000000000000000000000000000000000000000000000000000600052602260045260246000fd5b6000601f19601f8301169050919050565b613dfc8062000b1a6000396000f3fe608060405234801561001057600080fd5b50600436106101215760003560e01c80636352211e116100ad578063b88d4fde11610071578063b88d4fde14610340578063c575757a1461035c578063c87b56dd1461038c578063de9d132f146103bc578063e985e9c5146103c657610121565b80636352211e1461027657806370a08231146102a657806395d89b41146102d6578063a22cb465146102f4578063b187301f1461031057610121565b806323b872dd116100f457806323b872dd146101c05780632de38d68146101dc5780633748a5c21461020c57806342842e0e1461022a578063514dc8c61461024657610121565b806301ffc9a71461012657806306fdde0314610156578063081812fc14610174578063095ea7b3146101a4575b600080fd5b610140600480360381019061013b91906127c0565b6103f6565b60405161014d9190612f4c565b60405180910390f35b61015e6104d8565b60405161016b9190612f67565b60405180910390f35b61018e60048036038101906101899190612812565b61056a565b60405161019b9190612ebc565b60405180910390f35b6101be60048036038101906101b99190612784565b6105ef565b005b6101da60048036038101906101d5919061267e565b610707565b005b6101f660048036038101906101f19190612812565b610767565b6040516102039190612f67565b60405180910390f35b610214610885565b6040516102219190613217565b60405180910390f35b610244600480360381019061023f919061267e565b6108de565b005b610260600480360381019061025b9190612812565b6108fe565b60405161026d9190612f67565b60405180910390f35b610290600480360381019061028b9190612812565b610a1c565b60405161029d9190612ebc565b60405180910390f35b6102c060048036038101906102bb9190612619565b610ace565b6040516102cd9190613217565b60405180910390f35b6102de610b86565b6040516102eb9190612f67565b60405180910390f35b61030e60048036038101906103099190612748565b610c18565b005b61032a60048036038101906103259190612812565b610c2e565b6040516103379190612f67565b60405180910390f35b61035a600480360381019061035591906126cd565b610d4c565b005b61037660048036038101906103719190612812565b610dae565b6040516103839190612f67565b60405180910390f35b6103a660048036038101906103a19190612812565b610ecc565b6040516103b39190612f67565b60405180910390f35b6103c461101e565b005b6103e060048036038101906103db9190612642565b611264565b6040516103ed9190612f4c565b60405180910390f35b60007f80ac58cd000000000000000000000000000000000000000000000000000000007bffffffffffffffffffffffffffffffffffffffffffffffffffffffff1916827bffffffffffffffffffffffffffffffffffffffffffffffffffffffff191614806104c157507f5b5e139f000000000000000000000000000000000000000000000000000000007bffffffffffffffffffffffffffffffffffffffffffffffffffffffff1916827bffffffffffffffffffffffffffffffffffffffffffffffffffffffff1916145b806104d157506104d082611391565b5b9050919050565b6060600080546104e7906134ab565b80601f0160208091040260200160405190810160405280929190818152602001828054610513906134ab565b80156105605780601f1061053557610100808354040283529160200191610560565b820191906000526020600020905b81548152906001019060200180831161054357829003601f168201915b5050505050905090565b6000610575826113fb565b6105b4576040517f08c379a00000000000000000000000000000000000000000000000000000000081526004016105ab90613177565b60405180910390fd5b6004600083815260200190815260200160002060009054906101000a900473ffffffffffffffffffffffffffffffffffffffff169050919050565b60006105fa82610a1c565b90508073ffffffffffffffffffffffffffffffffffffffff168373ffffffffffffffffffffffffffffffffffffffff16141561066b576040517f08c379a0000000000000000000000000000000000000000000000000000000008152600401610662906131b7565b60405180910390fd5b8073ffffffffffffffffffffffffffffffffffffffff1661068a611467565b73ffffffffffffffffffffffffffffffffffffffff1614806106b957506106b8816106b3611467565b611264565b5b6106f8576040517f08c379a00000000000000000000000000000000000000000000000000000000081526004016106ef906130b7565b60405180910390fd5b610702838361146f565b505050565b610718610712611467565b82611528565b610757576040517f08c379a000000000000000000000000000000000000000000000000000000000815260040161074e906131d7565b60405180910390fd5b610762838383611606565b505050565b6060600061079b6107778461186d565b6040516020016107879190612e56565b604051602081830303815290604052611a1a565b9050600a80549050816107ae9190613557565b9050600a81815481106107ea577f4e487b7100000000000000000000000000000000000000000000000000000000600052603260045260246000fd5b9060005260206000200180546107ff906134ab565b80601f016020809104026020016040519081016040528092919081815260200182805461082b906134ab565b80156108785780601f1061084d57610100808354040283529160200191610878565b820191906000526020600020905b81548152906001019060200180831161085b57829003601f168201915b5050505050915050919050565b60006108cf6040518060400160405280601281526020017f4e756d626572206f66204e4654733a20257300000000000000000000000000008152506108ca6007611a4d565b611a5b565b6108d96007611a4d565b905090565b6108f983838360405180602001604052806000815250610d4c565b505050565b6060600061093261090e8461186d565b60405160200161091e9190612e9a565b604051602081830303815290604052611a1a565b9050600d80549050816109459190613557565b9050600d8181548110610981577f4e487b7100000000000000000000000000000000000000000000000000000000600052603260045260246000fd5b906000526020600020018054610996906134ab565b80601f01602080910402602001604051908101604052809291908181526020018280546109c2906134ab565b8015610a0f5780601f106109e457610100808354040283529160200191610a0f565b820191906000526020600020905b8154815290600101906020018083116109f257829003601f168201915b5050505050915050919050565b6000806002600084815260200190815260200160002060009054906101000a900473ffffffffffffffffffffffffffffffffffffffff169050600073ffffffffffffffffffffffffffffffffffffffff168173ffffffffffffffffffffffffffffffffffffffff161415610ac5576040517f08c379a0000000000000000000000000000000000000000000000000000000008152600401610abc906130f7565b60405180910390fd5b80915050919050565b60008073ffffffffffffffffffffffffffffffffffffffff168273ffffffffffffffffffffffffffffffffffffffff161415610b3f576040517f08c379a0000000000000000000000000000000000000000000000000000000008152600401610b36906130d7565b60405180910390fd5b600360008373ffffffffffffffffffffffffffffffffffffffff1673ffffffffffffffffffffffffffffffffffffffff168152602001908152602001600020549050919050565b606060018054610b95906134ab565b80601f0160208091040260200160405190810160405280929190818152602001828054610bc1906134ab565b8015610c0e5780601f10610be357610100808354040283529160200191610c0e565b820191906000526020600020905b815481529060010190602001808311610bf157829003601f168201915b5050505050905090565b610c2a610c23611467565b8383611af7565b5050565b60606000610c62610c3e8461186d565b604051602001610c4e9190612def565b604051602081830303815290604052611a1a565b9050600b8054905081610c759190613557565b9050600b8181548110610cb1577f4e487b7100000000000000000000000000000000000000000000000000000000600052603260045260246000fd5b906000526020600020018054610cc6906134ab565b80601f0160208091040260200160405190810160405280929190818152602001828054610cf2906134ab565b8015610d3f5780601f10610d1457610100808354040283529160200191610d3f565b820191906000526020600020905b815481529060010190602001808311610d2257829003601f168201915b5050505050915050919050565b610d5d610d57611467565b83611528565b610d9c576040517f08c379a0000000000000000000000000000000000000000000000000000000008152600401610d93906131d7565b60405180910390fd5b610da884848484611c64565b50505050565b60606000610de2610dbe8461186d565b604051602001610dce9190612dcd565b604051602081830303815290604052611a1a565b9050600c8054905081610df59190613557565b9050600c8181548110610e31577f4e487b7100000000000000000000000000000000000000000000000000000000600052603260045260246000fd5b906000526020600020018054610e46906134ab565b80601f0160208091040260200160405190810160405280929190818152602001828054610e72906134ab565b8015610ebf5780601f10610e9457610100808354040283529160200191610ebf565b820191906000526020600020905b815481529060010190602001808311610ea257829003601f168201915b5050505050915050919050565b6060610ed7826113fb565b610f16576040517f08c379a0000000000000000000000000000000000000000000000000000000008152600401610f0d90613157565b60405180910390fd5b6000600660008481526020019081526020016000208054610f36906134ab565b80601f0160208091040260200160405190810160405280929190818152602001828054610f62906134ab565b8015610faf5780601f10610f8457610100808354040283529160200191610faf565b820191906000526020600020905b815481529060010190602001808311610f9257829003601f168201915b505050505090506000610fc0611cc0565b9050600081511415610fd6578192505050611019565b60008251111561100b578082604051602001610ff3929190612d2f565b60405160208183030381529060405292505050611019565b61101484611cd7565b925050505b919050565b603261102a6007611a4d565b1061106a576040517f08c379a0000000000000000000000000000000000000000000000000000000008152600401611061906131f7565b60405180910390fd5b60006110766007611a4d565b9050600061108382610767565b9050600061109083610c2e565b9050600061109d84610dae565b905060008383836040516020016110b693929190612d53565b604051602081830303815290604052905060006110d2866108fe565b905060006008826009856040516020016110ef9493929190612d84565b604051602081830303815290604052905060006111348461110f84611d7e565b604051602001611120929190612e11565b604051602081830303815290604052611d7e565b90506000816040516020016111499190612e78565b60405160208183030381529060405290506111986040518060400160405280601581526020017f0a2d2d2d2d2d2d2d2d2d2d2d2d2d2d2d2d2d2d2d2d00000000000000000000008152506112f8565b6111a1816112f8565b6111df6040518060400160405280601581526020017f2d2d2d2d2d2d2d2d2d2d2d2d2d2d2d2d2d2d2d2d0a00000000000000000000008152506112f8565b6111e9338a611f3c565b6111f38982611f5a565b6111fd6007611fce565b611220604051806060016040528060258152602001613d62602591398a33611fe4565b7febb98688741ffa4c7589bf325de30cf7becb63de567842e1ccdb6cb949fdc82c338a604051611251929190612f23565b60405180910390a1505050505050505050565b6000600560008473ffffffffffffffffffffffffffffffffffffffff1673ffffffffffffffffffffffffffffffffffffffff16815260200190815260200160002060008373ffffffffffffffffffffffffffffffffffffffff1673ffffffffffffffffffffffffffffffffffffffff16815260200190815260200160002060009054906101000a900460ff16905092915050565b61138e8160405160240161130c9190612f67565b6040516020818303038152906040527f41304fac000000000000000000000000000000000000000000000000000000007bffffffffffffffffffffffffffffffffffffffffffffffffffffffff19166020820180517bffffffffffffffffffffffffffffffffffffffffffffffffffffffff8381831617835250505050612083565b50565b60007f01ffc9a7000000000000000000000000000000000000000000000000000000007bffffffffffffffffffffffffffffffffffffffffffffffffffffffff1916827bffffffffffffffffffffffffffffffffffffffffffffffffffffffff1916149050919050565b60008073ffffffffffffffffffffffffffffffffffffffff166002600084815260200190815260200160002060009054906101000a900473ffffffffffffffffffffffffffffffffffffffff1673ffffffffffffffffffffffffffffffffffffffff1614159050919050565b600033905090565b816004600083815260200190815260200160002060006101000a81548173ffffffffffffffffffffffffffffffffffffffff021916908373ffffffffffffffffffffffffffffffffffffffff160217905550808273ffffffffffffffffffffffffffffffffffffffff166114e283610a1c565b73ffffffffffffffffffffffffffffffffffffffff167f8c5be1e5ebec7d5bd14f71427d1e84f3dd0314c0f7b2291e5b200ac8c7c3b92560405160405180910390a45050565b6000611533826113fb565b611572576040517f08c379a000000000000000000000000000000000000000000000000000000000815260040161156990613097565b60405180910390fd5b600061157d83610a1c565b90508073ffffffffffffffffffffffffffffffffffffffff168473ffffffffffffffffffffffffffffffffffffffff1614806115ec57508373ffffffffffffffffffffffffffffffffffffffff166115d48461056a565b73ffffffffffffffffffffffffffffffffffffffff16145b806115fd57506115fc8185611264565b5b91505092915050565b8273ffffffffffffffffffffffffffffffffffffffff1661162682610a1c565b73ffffffffffffffffffffffffffffffffffffffff161461167c576040517f08c379a000000000000000000000000000000000000000000000000000000000815260040161167390613017565b60405180910390fd5b600073ffffffffffffffffffffffffffffffffffffffff168273ffffffffffffffffffffffffffffffffffffffff1614156116ec576040517f08c379a00000000000000000000000000000000000000000000000000000000081526004016116e390613057565b60405180910390fd5b6116f78383836120ac565b61170260008261146f565b6001600360008573ffffffffffffffffffffffffffffffffffffffff1673ffffffffffffffffffffffffffffffffffffffff168152602001908152602001600020600082825461175291906133c1565b925050819055506001600360008473ffffffffffffffffffffffffffffffffffffffff1673ffffffffffffffffffffffffffffffffffffffff16815260200190815260200160002060008282546117a991906132e0565b92505081905550816002600083815260200190815260200160002060006101000a81548173ffffffffffffffffffffffffffffffffffffffff021916908373ffffffffffffffffffffffffffffffffffffffff160217905550808273ffffffffffffffffffffffffffffffffffffffff168473ffffffffffffffffffffffffffffffffffffffff167fddf252ad1be2c89b69c2b068fc378daa952ba7f163c4a11628f55a4df523b3ef60405160405180910390a46118688383836120b1565b505050565b606060008214156118b5576040518060400160405280600181526020017f30000000000000000000000000000000000000000000000000000000000000008152509050611a15565b600082905060005b600082146118e75780806118d09061350e565b915050600a826118e09190613336565b91506118bd565b60008167ffffffffffffffff811115611929577f4e487b7100000000000000000000000000000000000000000000000000000000600052604160045260246000fd5b6040519080825280601f01601f19166020018201604052801561195b5781602001600182028036833780820191505090505b5090505b60008514611a0e5760018261197491906133c1565b9150600a856119839190613557565b603061198f91906132e0565b60f81b8183815181106119cb577f4e487b7100000000000000000000000000000000000000000000000000000000600052603260045260246000fd5b60200101907effffffffffffffffffffffffffffffffffffffffffffffffffffffffffffff1916908160001a905350600a85611a079190613336565b945061195f565b8093505050505b919050565b600081604051602001611a2d9190612d18565b6040516020818303038152906040528051906020012060001c9050919050565b600081600001549050919050565b611af38282604051602401611a71929190612f89565b6040516020818303038152906040527f9710a9d0000000000000000000000000000000000000000000000000000000007bffffffffffffffffffffffffffffffffffffffffffffffffffffffff19166020820180517bffffffffffffffffffffffffffffffffffffffffffffffffffffffff8381831617835250505050612083565b5050565b8173ffffffffffffffffffffffffffffffffffffffff168373ffffffffffffffffffffffffffffffffffffffff161415611b66576040517f08c379a0000000000000000000000000000000000000000000000000000000008152600401611b5d90613077565b60405180910390fd5b80600560008573ffffffffffffffffffffffffffffffffffffffff1673ffffffffffffffffffffffffffffffffffffffff16815260200190815260200160002060008473ffffffffffffffffffffffffffffffffffffffff1673ffffffffffffffffffffffffffffffffffffffff16815260200190815260200160002060006101000a81548160ff0219169083151502179055508173ffffffffffffffffffffffffffffffffffffffff168373ffffffffffffffffffffffffffffffffffffffff167f17307eab39ab6107e8899845ad3d59bd9653f200f220920489ca2b5937696c3183604051611c579190612f4c565b60405180910390a3505050565b611c6f848484611606565b611c7b848484846120b6565b611cba576040517f08c379a0000000000000000000000000000000000000000000000000000000008152600401611cb190612ff7565b60405180910390fd5b50505050565b606060405180602001604052806000815250905090565b6060611ce2826113fb565b611d21576040517f08c379a0000000000000000000000000000000000000000000000000000000008152600401611d1890613197565b60405180910390fd5b6000611d2b611cc0565b90506000815111611d4b5760405180602001604052806000815250611d76565b80611d558461186d565b604051602001611d66929190612d2f565b6040516020818303038152906040525b915050919050565b60606000825190506000811415611da75760405180602001604052806000815250915050611f37565b60006003600283611db891906132e0565b611dc29190613336565b6004611dce9190613367565b90506000602082611ddf91906132e0565b67ffffffffffffffff811115611e1e577f4e487b7100000000000000000000000000000000000000000000000000000000600052604160045260246000fd5b6040519080825280601f01601f191660200182016040528015611e505781602001600182028036833780820191505090505b5090506000604051806060016040528060408152602001613d87604091399050600181016020830160005b86811015611ef45760038101905062ffffff818a015116603f8160121c168401518060081b905060ff603f83600c1c1686015116810190508060081b905060ff603f8360061c1686015116810190508060081b905060ff603f831686015116810190508060e01b90508084526004840193505050611e7b565b506003860660018114611f0e5760028114611f1e57611f29565b613d3d60f01b6002830352611f29565b603d60f81b60018303525b508484525050819450505050505b919050565b611f5682826040518060200160405280600081525061224d565b5050565b611f63826113fb565b611fa2576040517f08c379a0000000000000000000000000000000000000000000000000000000008152600401611f9990613117565b60405180910390fd5b80600660008481526020019081526020016000209080519060200190611fc99291906124a5565b505050565b6001816000016000828254019250508190555050565b61207e838383604051602401611ffc93929190612fb9565b6040516020818303038152906040527fe3849f79000000000000000000000000000000000000000000000000000000007bffffffffffffffffffffffffffffffffffffffffffffffffffffffff19166020820180517bffffffffffffffffffffffffffffffffffffffffffffffffffffffff8381831617835250505050612083565b505050565b60008151905060006a636f6e736f6c652e6c6f679050602083016000808483855afa5050505050565b505050565b505050565b60006120d78473ffffffffffffffffffffffffffffffffffffffff166122a8565b15612240578373ffffffffffffffffffffffffffffffffffffffff1663150b7a02612100611467565b8786866040518563ffffffff1660e01b81526004016121229493929190612ed7565b602060405180830381600087803b15801561213c57600080fd5b505af192505050801561216d57506040513d601f19601f8201168201806040525081019061216a91906127e9565b60015b6121f0573d806000811461219d576040519150601f19603f3d011682016040523d82523d6000602084013e6121a2565b606091505b506000815114156121e8576040517f08c379a00000000000000000000000000000000000000000000000000000000081526004016121df90612ff7565b60405180910390fd5b805181602001fd5b63150b7a0260e01b7bffffffffffffffffffffffffffffffffffffffffffffffffffffffff1916817bffffffffffffffffffffffffffffffffffffffffffffffffffffffff191614915050612245565b600190505b949350505050565b61225783836122cb565b61226460008484846120b6565b6122a3576040517f08c379a000000000000000000000000000000000000000000000000000000000815260040161229a90612ff7565b60405180910390fd5b505050565b6000808273ffffffffffffffffffffffffffffffffffffffff163b119050919050565b600073ffffffffffffffffffffffffffffffffffffffff168273ffffffffffffffffffffffffffffffffffffffff16141561233b576040517f08c379a000000000000000000000000000000000000000000000000000000000815260040161233290613137565b60405180910390fd5b612344816113fb565b15612384576040517f08c379a000000000000000000000000000000000000000000000000000000000815260040161237b90613037565b60405180910390fd5b612390600083836120ac565b6001600360008473ffffffffffffffffffffffffffffffffffffffff1673ffffffffffffffffffffffffffffffffffffffff16815260200190815260200160002060008282546123e091906132e0565b92505081905550816002600083815260200190815260200160002060006101000a81548173ffffffffffffffffffffffffffffffffffffffff021916908373ffffffffffffffffffffffffffffffffffffffff160217905550808273ffffffffffffffffffffffffffffffffffffffff16600073ffffffffffffffffffffffffffffffffffffffff167fddf252ad1be2c89b69c2b068fc378daa952ba7f163c4a11628f55a4df523b3ef60405160405180910390a46124a1600083836120b1565b5050565b8280546124b1906134ab565b90600052602060002090601f0160209004810192826124d3576000855561251a565b82601f106124ec57805160ff191683800117855561251a565b8280016001018555821561251a579182015b828111156125195782518255916020019190600101906124fe565b5b509050612527919061252b565b5090565b5b8082111561254457600081600090555060010161252c565b5090565b600061255b61255684613257565b613232565b90508281526020810184848401111561257357600080fd5b61257e848285613469565b509392505050565b60008135905061259581613d05565b92915050565b6000813590506125aa81613d1c565b92915050565b6000813590506125bf81613d33565b92915050565b6000815190506125d481613d33565b92915050565b600082601f8301126125eb57600080fd5b81356125fb848260208601612548565b91505092915050565b60008135905061261381613d4a565b92915050565b60006020828403121561262b57600080fd5b600061263984828501612586565b91505092915050565b6000806040838503121561265557600080fd5b600061266385828601612586565b925050602061267485828601612586565b9150509250929050565b60008060006060848603121561269357600080fd5b60006126a186828701612586565b93505060206126b286828701612586565b92505060406126c386828701612604565b9150509250925092565b600080600080608085870312156126e357600080fd5b60006126f187828801612586565b945050602061270287828801612586565b935050604061271387828801612604565b925050606085013567ffffffffffffffff81111561273057600080fd5b61273c878288016125da565b91505092959194509250565b6000806040838503121561275b57600080fd5b600061276985828601612586565b925050602061277a8582860161259b565b9150509250929050565b6000806040838503121561279757600080fd5b60006127a585828601612586565b92505060206127b685828601612604565b9150509250929050565b6000602082840312156127d257600080fd5b60006127e0848285016125b0565b91505092915050565b6000602082840312156127fb57600080fd5b6000612809848285016125c5565b91505092915050565b60006020828403121561282457600080fd5b600061283284828501612604565b91505092915050565b612844816133f5565b82525050565b61285381613407565b82525050565b60006128648261329d565b61286e81856132b3565b935061287e818560208601613478565b61288781613644565b840191505092915050565b600061289d826132a8565b6128a781856132c4565b93506128b7818560208601613478565b6128c081613644565b840191505092915050565b60006128d6826132a8565b6128e081856132d5565b93506128f0818560208601613478565b80840191505092915050565b60008154612909816134ab565b61291381866132d5565b9450600182166000811461292e576001811461293f57612972565b60ff19831686528186019350612972565b61294885613288565b60005b8381101561296a5781548189015260018201915060208101905061294b565b838801955050505b50505092915050565b60006129886032836132c4565b915061299382613655565b604082019050919050565b60006129ab6025836132c4565b91506129b6826136a4565b604082019050919050565b60006129ce601c836132c4565b91506129d9826136f3565b602082019050919050565b60006129f1600a836132d5565b91506129fc8261371c565b600a82019050919050565b6000612a146024836132c4565b9150612a1f82613745565b604082019050919050565b6000612a376019836132c4565b9150612a4282613794565b602082019050919050565b6000612a5a6063836132d5565b9150612a65826137bd565b606382019050919050565b6000612a7d600b836132d5565b9150612a8882613858565b600b82019050919050565b6000612aa0602c836132c4565b9150612aab82613881565b604082019050919050565b6000612ac3600d836132d5565b9150612ace826138d0565b600d82019050919050565b6000612ae66038836132c4565b9150612af1826138f9565b604082019050919050565b6000612b09602a836132c4565b9150612b1482613948565b604082019050919050565b6000612b2c6029836132c4565b9150612b3782613997565b604082019050919050565b6000612b4f602e836132c4565b9150612b5a826139e6565b604082019050919050565b6000612b726002836132d5565b9150612b7d82613a35565b600282019050919050565b6000612b956020836132c4565b9150612ba082613a5e565b602082019050919050565b6000612bb86031836132c4565b9150612bc382613a87565b604082019050919050565b6000612bdb602c836132c4565b9150612be682613ad6565b604082019050919050565b6000612bfe602f836132c4565b9150612c0982613b25565b604082019050919050565b6000612c21600a836132d5565b9150612c2c82613b74565b600a82019050919050565b6000612c446021836132c4565b9150612c4f82613b9d565b604082019050919050565b6000612c67600a836132d5565b9150612c7282613bec565b600a82019050919050565b6000612c8a601d836132d5565b9150612c9582613c15565b601d82019050919050565b6000612cad6031836132c4565b9150612cb882613c3e565b604082019050919050565b6000612cd06005836132d5565b9150612cdb82613c8d565b600582019050919050565b6000612cf36021836132c4565b9150612cfe82613cb6565b604082019050919050565b612d128161345f565b82525050565b6000612d2482846128cb565b915081905092915050565b6000612d3b82856128cb565b9150612d4782846128cb565b91508190509392505050565b6000612d5f82866128cb565b9150612d6b82856128cb565b9150612d7782846128cb565b9150819050949350505050565b6000612d9082876128fc565b9150612d9c82866128cb565b9150612da882856128fc565b9150612db482846128cb565b9150612dbf82612ab6565b915081905095945050505050565b6000612dd8826129e4565b9150612de482846128cb565b915081905092915050565b6000612dfa82612a70565b9150612e0682846128cb565b915081905092915050565b6000612e1c82612c14565b9150612e2882856128cb565b9150612e3382612a4d565b9150612e3f82846128cb565b9150612e4a82612b65565b91508190509392505050565b6000612e6182612c5a565b9150612e6d82846128cb565b915081905092915050565b6000612e8382612c7d565b9150612e8f82846128cb565b915081905092915050565b6000612ea582612cc3565b9150612eb182846128cb565b915081905092915050565b6000602082019050612ed1600083018461283b565b92915050565b6000608082019050612eec600083018761283b565b612ef9602083018661283b565b612f066040830185612d09565b8181036060830152612f188184612859565b905095945050505050565b6000604082019050612f38600083018561283b565b612f456020830184612d09565b9392505050565b6000602082019050612f61600083018461284a565b92915050565b60006020820190508181036000830152612f818184612892565b905092915050565b60006040820190508181036000830152612fa38185612892565b9050612fb26020830184612d09565b9392505050565b60006060820190508181036000830152612fd38186612892565b9050612fe26020830185612d09565b612fef604083018461283b565b949350505050565b600060208201905081810360008301526130108161297b565b9050919050565b600060208201905081810360008301526130308161299e565b9050919050565b60006020820190508181036000830152613050816129c1565b9050919050565b6000602082019050818103600083015261307081612a07565b9050919050565b6000602082019050818103600083015261309081612a2a565b9050919050565b600060208201905081810360008301526130b081612a93565b9050919050565b600060208201905081810360008301526130d081612ad9565b9050919050565b600060208201905081810360008301526130f081612afc565b9050919050565b6000602082019050818103600083015261311081612b1f565b9050919050565b6000602082019050818103600083015261313081612b42565b9050919050565b6000602082019050818103600083015261315081612b88565b9050919050565b6000602082019050818103600083015261317081612bab565b9050919050565b6000602082019050818103600083015261319081612bce565b9050919050565b600060208201905081810360008301526131b081612bf1565b9050919050565b600060208201905081810360008301526131d081612c37565b9050919050565b600060208201905081810360008301526131f081612ca0565b9050919050565b6000602082019050818103600083015261321081612ce6565b9050919050565b600060208201905061322c6000830184612d09565b92915050565b600061323c61324d565b905061324882826134dd565b919050565b6000604051905090565b600067ffffffffffffffff82111561327257613271613615565b5b61327b82613644565b9050602081019050919050565b60008190508160005260206000209050919050565b600081519050919050565b600081519050919050565b600082825260208201905092915050565b600082825260208201905092915050565b600081905092915050565b60006132eb8261345f565b91506132f68361345f565b9250827fffffffffffffffffffffffffffffffffffffffffffffffffffffffffffffffff0382111561332b5761332a613588565b5b828201905092915050565b60006133418261345f565b915061334c8361345f565b92508261335c5761335b6135b7565b5b828204905092915050565b60006133728261345f565b915061337d8361345f565b9250817fffffffffffffffffffffffffffffffffffffffffffffffffffffffffffffffff04831182151516156133b6576133b5613588565b5b828202905092915050565b60006133cc8261345f565b91506133d78361345f565b9250828210156133ea576133e9613588565b5b828203905092915050565b60006134008261343f565b9050919050565b60008115159050919050565b60007fffffffff0000000000000000000000000000000000000000000000000000000082169050919050565b600073ffffffffffffffffffffffffffffffffffffffff82169050919050565b6000819050919050565b82818337600083830152505050565b60005b8381101561349657808201518184015260208101905061347b565b838111156134a5576000848401525b50505050565b600060028204905060018216806134c357607f821691505b602082108114156134d7576134d66135e6565b5b50919050565b6134e682613644565b810181811067ffffffffffffffff8211171561350557613504613615565b5b80604052505050565b60006135198261345f565b91507fffffffffffffffffffffffffffffffffffffffffffffffffffffffffffffffff82141561354c5761354b613588565b5b600182019050919050565b60006135628261345f565b915061356d8361345f565b92508261357d5761357c6135b7565b5b828206905092915050565b7f4e487b7100000000000000000000000000000000000000000000000000000000600052601160045260246000fd5b7f4e487b7100000000000000000000000000000000000000000000000000000000600052601260045260246000fd5b7f4e487b7100000000000000000000000000000000000000000000000000000000600052602260045260246000fd5b7f4e487b7100000000000000000000000000000000000000000000000000000000600052604160045260246000fd5b6000601f19601f8301169050919050565b7f4552433732313a207472616e7366657220746f206e6f6e20455243373231526560008201527f63656976657220696d706c656d656e7465720000000000000000000000000000602082015250565b7f4552433732313a207472616e736665722066726f6d20696e636f72726563742060008201527f6f776e6572000000000000000000000000000000000000000000000000000000602082015250565b7f4552433732313a20746f6b656e20616c7265616479206d696e74656400000000600082015250565b7f54484952445f574f524400000000000000000000000000000000000000000000600082015250565b7f4552433732313a207472616e7366657220746f20746865207a65726f2061646460008201527f7265737300000000000000000000000000000000000000000000000000000000602082015250565b7f4552433732313a20617070726f766520746f2063616c6c657200000000000000600082015250565b7f222c20226465736372697074696f6e223a20224120686967686c79206163636c60008201527f61696d656420636f6c6c656374696f6e206f6620737175617265732e222c202260208201527f696d616765223a2022646174613a696d6167652f7376672b786d6c3b6261736560408201527f36342c0000000000000000000000000000000000000000000000000000000000606082015250565b7f5345434f4e445f574f5244000000000000000000000000000000000000000000600082015250565b7f4552433732313a206f70657261746f7220717565727920666f72206e6f6e657860008201527f697374656e7420746f6b656e0000000000000000000000000000000000000000602082015250565b7f3c2f746578743e3c2f7376673e00000000000000000000000000000000000000600082015250565b7f4552433732313a20617070726f76652063616c6c6572206973206e6f74206f7760008201527f6e6572206e6f7220617070726f76656420666f7220616c6c0000000000000000602082015250565b7f4552433732313a2062616c616e636520717565727920666f7220746865207a6560008201527f726f206164647265737300000000000000000000000000000000000000000000602082015250565b7f4552433732313a206f776e657220717565727920666f72206e6f6e657869737460008201527f656e7420746f6b656e0000000000000000000000000000000000000000000000602082015250565b7f45524337323155524953746f726167653a2055524920736574206f66206e6f6e60008201527f6578697374656e7420746f6b656e000000000000000000000000000000000000602082015250565b7f227d000000000000000000000000000000000000000000000000000000000000600082015250565b7f4552433732313a206d696e7420746f20746865207a65726f2061646472657373600082015250565b7f45524337323155524953746f726167653a2055524920717565727920666f722060008201527f6e6f6e6578697374656e7420746f6b656e000000000000000000000000000000602082015250565b7f4552433732313a20617070726f76656420717565727920666f72206e6f6e657860008201527f697374656e7420746f6b656e0000000000000000000000000000000000000000602082015250565b7f4552433732314d657461646174613a2055524920717565727920666f72206e6f60008201527f6e6578697374656e7420746f6b656e0000000000000000000000000000000000602082015250565b7f7b226e616d65223a202200000000000000000000000000000000000000000000600082015250565b7f4552433732313a20617070726f76616c20746f2063757272656e74206f776e6560008201527f7200000000000000000000000000000000000000000000000000000000000000602082015250565b7f46495253545f574f524400000000000000000000000000000000000000000000600082015250565b7f646174613a6170706c69636174696f6e2f6a736f6e3b6261736536342c000000600082015250565b7f4552433732313a207472616e736665722063616c6c6572206973206e6f74206f60008201527f776e6572206e6f7220617070726f766564000000000000000000000000000000602082015250565b7f434f4c4f52000000000000000000000000000000000000000000000000000000600082015250565b7f546865206d6178696d756d204e465420686173206265656e207265616368656460008201527f2100000000000000000000000000000000000000000000000000000000000000602082015250565b613d0e816133f5565b8114613d1957600080fd5b50565b613d2581613407565b8114613d3057600080fd5b50565b613d3c81613413565b8114613d4757600080fd5b50565b613d538161345f565b8114613d5e57600080fd5b5056fe416e204e465420772f20494420257320686173206265656e206d696e74656420746f2025734142434445464748494a4b4c4d4e4f505152535455565758595a6162636465666768696a6b6c6d6e6f707172737475767778797a303132333435363738392b2fa2646970667358221220c403c7a3c343bac5cc8c12fc8e43e6dcafa297b4e52bd6ef9ad02c74f42bac3664736f6c634300080100333c73766720786d6c6e733d27687474703a2f2f7777772e77332e6f72672f323030302f73766727207072657365727665417370656374526174696f3d27784d696e594d696e206d656574272076696577426f783d273020302033353020333530273e3c7374796c653e2e62617365207b2066696c6c3a2077686974653b20666f6e742d66616d696c793a2073657269663b20666f6e742d73697a653a20323470783b207d3c2f7374796c653e3c726563742077696474683d273130302527206865696768743d2731303025272066696c6c3d27272f3e3c7465787420783d273530252720793d273530252720636c6173733d27626173652720646f6d696e616e742d626173656c696e653d276d6964646c652720746578742d616e63686f723d276d6964646c65273e",
  "linkReferences": {},
  "deployedLinkReferences": {}
}